:020000040800F2
:10000000100500209D010008A5010008A7010008B7
:10001000A9010008AB010008AD01000800000000C4
:10002000000000000000000000000000AF01000818
:10003000B101000800000000B301000833250008EA
:10004000B7010008B7010008B7010008B7010008B0
:10005000B7010008B7010008B7010008B7010008A0
:10006000B7010008B7010008B7010008B701000890
:10007000B7010008B7010008B7010008B701000880
:10008000B7010008B7010008B7010008B701000870
:10009000B7010008B7010008B7010008B701000860
:1000A000B7010008B7010008B7010008B701000850
:1000B000B7010008B701000897200008B701000841
:1000C000B7010008B7010008B7010008B701000830
:1000D000B7010008B7010008B7010008391E000881
:1000E000B7010008B7010008B7010008B701000810
:1000F000B7010008B7010008B7010008B701000800
:10010000B7010008B701000813270008B70100086D
:10011000B7010008B7010008B7010008B7010008DF
:10012000B7010008B7010008B7010008B7010008CF
:10013000B7010008B7010008B7010008B7010008BF
:10014000B7010008B7010008B7010008B7010008AF
:10015000B7010008B7010008B7010008B70100089F
:10016000B7010008B7010008B7010008B70100088F
:10017000B7010008B7010008B7010008B70100087F
:10018000B7010008B7010008DFF80CD002F0E0FD6D
:1001900000480047C71C000810050020064880479B
:1001A00006480047FEE7FEE7FEE7FEE7FEE7FEE75C
:1001B000FEE7FEE7FEE7FEE7DB2100088901000815
:1001C00033490143334A1160704770B50021002361
:1001D0000F22C47824B32F4C246804F4E064C4F5DF
:1001E000E064C4F30721C1F10404E3B20A41447896
:1001F0009C40E1B28478144021430C07210E264C28
:1002000005786155047804F01F050124AC40057899
:100210006D114FF0E02606EB8505C5F8004109E0B9
:10022000047804F01F040125A5401C4C06787611C3
:1002300044F8265070BD1A4A0A400243154B1B1F52
:100240001A60704739B1134A121D12680243114BEC
:100250001B1D1A6006E00F4A121D126882430D4BE7
:100260001B1D1A607047042808D14FF0E02109696E
:1002700041F004014FF0E022116107E04FF0E0216E
:10028000096921F004014FF0E0221161704700007C
:100290000000FA050CED00E000E400E080E100E081
:1002A00080FFFF1FFA48006840F00100F84908602D
:1002B0000020F74908310860F5480068F549084012
:1002C000F3490860F448091D0860081F006820F41D
:1002D0008020091F08600020ED490C31086070473C
:1002E0000021EB4A921C117011460870704710B53E
:1002F00001460022002300204A11012A02D1E44CC9
:10030000236808E0022A03D1E14C7034236802E03C
:10031000DF4C7434236801F01F02012494401C4216
:1003200001D0012000E0002010BD38B50020009071
:100330000024002500BF3120FFF7D9FF05460098B3
:10034000401C00900098B0F5A06F01D0002DF2D0B5
:100350003120FFF7CCFF08B1012400E00024204643
:1003600038BD01460020CA4A106820F0F80040EA73
:10037000C10010607047C949086070470021C44A35
:10038000703211701170012802D004280AD104E0E3
:100390000121BF4A7032117005E00521BC4A70325C
:1003A000117000E000BF00BF7047BD490860704792
:1003B00070B5049C41EA82150126C6EB530645EA56
:1003C0000645054345EA0465B14E361D356070BDEE
:1003D000B24908667047820142EA0172AC4B84332D
:1003E0001A607047AD4988667047AC49C864704769
:1003F00002460020A64B0833186820F0EC6042EA61
:1004000001031843A24B08331860704702460020CE
:100410009F4B0833186820F0784042EA01031843E4
:100420009B4B08331860704701460020984A0832F9
:10043000106820F0030008431060704794480830AB
:10044000006800F00C00704701460020904A083216
:10045000106820F0F000084310607047014600204B
:100460008B4A0832106820F4E0500843106070474F
:1004700001460020864A0832106820F4604040EAB5
:10048000C10010607047F0B5002100220024022551
:10049000002602237E4F08373F6807F00C0121B188
:1004A000042905D0082937D105E07E4F076036E0E2
:1004B0007D4F076033E0764F3F1D3F68C7F380569E
:1004C000734F3F1D3F6807F03F036EB1764FB7FB98
:1004D000F3F7DFF8BCC10CF1040CDCF800C0CCF37E
:1004E000881C07FB0CF40CE06E4FB7FBF3F7DFF84A
:1004F000A0C10CF1040CDCF800C0CCF3881C07FB95
:100500000CF4634F3F1D3F68C7F301477F1C7D001C
:10051000B4FBF5F7076002E0624F076000BF00BF61
:100520005B4F08373F6807F0F00109095F4F7A5CBD
:100530000768D7404760564F08373F6807F4E051D7
:10054000890A5A4F7A5C4768D7408760504F08370E
:100550003F6807F46041490B544F7A5C4768D740C5
:10056000C760F0BD002100F44072B2F5407F0AD1AF
:10057000474A0832116821F4F8114D4A02401143EC
:10058000434A08321160424A70321268C0F30B03CA
:100590001A433F4B70331A60704741494439086031
:1005A00070473F49403908607047424908607047CA
:1005B00039B1374A303212680243354B30331A6052
:1005C00006E0334A303212688243314B30331A60CE
:1005D000704739B12E4A3432126802432C4B3433FF
:1005E0001A6006E02A4A343212688243284B3433B8
:1005F0001A60704739B1264A383212680243244BD8
:1006000038331A6006E0224A383212688243204B9F
:1006100038331A60704739B11D4A403212680243BC
:100620001B4B40331A6006E0194A4032126882437D
:10063000174B40331A60704739B1154A443212687B
:100640000243134B44331A6006E0114A44321268E5
:1006500082430F4B44331A60704739B10C4A103251
:10066000126802430A4B10331A6006E0084A10323F
:1006700012688243064B10331A607047E1B1044A96
:10068000143212680243024B14331A6019E000005E
:1006900000380240FFFFF6FE103000240000474201
:1006A000800E47420024F40000127A00000000206F
:1006B000FFFCFF0F5C0147425B4A126882435A4BC2
:1006C0001A60704739B1584A121D12680243564BDE
:1006D0001B1D1A6006E0544A121D12688243524BD9
:1006E0001B1D1A60704739B14F4A0C321268024321
:1006F0004D4B0C331A6006E04B4A0C3212688243B1
:10070000494B0C331A60704739B1474A10321268AE
:100710000243454B10331A6006E0434A1032126818
:100720008243414B10331A60704739B13E4A3C3224
:10073000126802433C4B3C331A6006E03A4A3C32B2
:1007400012688243384B3C331A60704739B1364ADD
:10075000403212680243344B40331A6006E0324A9A
:10076000403212688243304B40331A60704739B1CF
:100770002D4A4432126802432B4B44331A6006E080
:10078000294A443212688243274B44331A60704727
:1007900039B1254A4C3212680243234B4C331A605C
:1007A00006E0214A4C32126882431F4B4C331A60D8
:1007B000704739B11C4A5032126802431A4B503309
:1007C0001A6006E0184A503212688243164B5033C2
:1007D0001A60704739B1144AD21F12780243124B83
:1007E000DB1F1A7006E0104AD21F127882430E4BAC
:1007F000DB1F1A7070470C486030006840F0807052
:10080000094960310860704701460020064A083AED
:1008100012680A4201D0012000E00020704702491E
:10082000891F0870704700001438024010B5044654
:100830008C48844208D101210846FFF70EFF0021B1
:100840000120FFF70AFF5EE08748844208D10121BA
:100850000220FFF702FF00210220FFF7FEFE52E018
:100860008248844208D101210420FFF7F6FE0021CE
:100870000420FFF7F2FE46E07D48844208D10121C2
:100880000820FFF7EAFE00210820FFF7E6FE3AE025
:100890007848844208D101211020FFF7DEFE0021B4
:1008A0001020FFF7DAFE2EE07348844208D10121C0
:1008B0002020FFF7D2FE00212020FFF7CEFE22E00D
:1008C0006E48844208D101214020FFF7C6FE002176
:1008D0004020FFF7C2FE16E06948844208D101219A
:1008E0008020FFF7BAFE00218020FFF7B6FE0AE065
:1008F0006448844207D101218015FFF7AEFE002134
:10090000A015FFF7AAFE10BDF0B50A46002100238E
:10091000002400BF3DE0012505FA01F3156805EA52
:1009200003049C4234D105684F000326BE40B54302
:10093000056015794E00B5400668354305601579A8
:10094000012D02D01579022D16D185684F0003269E
:10095000BE40B543856055794E00B5408668354345
:100960008560456801268E40B543456045689679A7
:100970008E40B6B235434560C5684F000326BE4081
:10098000B543C560D5794E00B540C6683543C560EE
:10099000491C1029BFD3F0BD4FF6FF710160002143
:1009A000017141718171C171704708B54FF4803296
:1009B0000092009A0A430092009AC261C161009AB3
:1009C000C261C2690092C269009208BD024600205D
:1009D00013690B4201D0012000E00020704701465E
:1009E000086980B270470246002053690B4201D06B
:1009F000012000E0002070470146486980B270473E
:100A000001837047418370470AB1018300E041834D
:100A100070474161704742694A4042617047F0B592
:100A2000002300244D07ED0E02FA05F3CE1000F16D
:100A3000200555F826504E07F70E0F26BE40B54349
:100A4000CF1000F1200646F82750CE1000F1200507
:100A500055F8265045EA0304CE1000F1200545F86C
:100A60002640F0BD000002400004024000080240A1
:100A7000000C024000100240001402400018024026
:100A8000001C02400020024010B50446FE4884428B
:100A900008D101210846FFF737FE00210120FFF7AA
:100AA00033FE9DE0B4F1804F08D101210846FFF7E5
:100AB0001AFE00210120FFF716FE91E0F348844260
:100AC00008D101210220FFF70EFE00210220FFF7CE
:100AD0000AFE85E0EE48844208D101210420FFF798
:100AE00002FE00210420FFF7FEFD79E0E948844280
:100AF00008D101210820FFF7F6FD00210820FFF7AB
:100B0000F2FD6DE0E448844208D101211020FFF796
:100B1000EAFD00211020FFF7E6FD61E0DF48844296
:100B200008D101212020FFF7DEFD00212020FFF762
:100B3000DAFD55E0DA48844208D101210220FFF7AE
:100B4000E3FD00210220FFF7DFFD49E0D5488442A4
:100B500009D101210804FFF7D7FD00214FF48030AF
:100B6000FFF7D2FD3CE0D048844209D1012148047E
:100B7000FFF7CAFD00214FF40030FFF7C5FD2FE05D
:100B8000CA48844209D101218804FFF7BDFD002134
:100B90004FF48020FFF7B8FD22E0C548844208D119
:100BA00001214020FFF79FFD00214020FFF79BFD22
:100BB00016E0C048844208D101218020FFF793FD50
:100BC00000218020FFF78FFD0AE0BB48844207D157
:100BD00001218015FFF787FD0021A015FFF783FD98
:100BE00010BD00220288A84B98420ED0AC4B984210
:100BF0000BD0B0F1804F08D0A44B984205D0A44B45
:100C0000984202D0A34B984204D14FF68F731A40FA
:100C10004B881A43A04B984207D0A04B984204D06F
:100C20004FF6FF431A400B891A4302804B68C36298
:100C30000B880385944B984202D0994B984201D17E
:100C40008B7A03860123838270474FF0FF31416026
:100C5000002101800181418081727047018582827B
:100C600070470A46002101884FF68F7319401143DF
:100C70000180704741627047C16270470146486A0F
:100C800070470146088D704721B1028842F0020288
:100C9000028004E002884FF6FD731A40028070471C
:100CA00021B1028842F00402028004E002884FF67B
:100CB000FB731A400280704721B1028842F0800223
:100CC000028004E002884FF67F731A40028070476A
:100CD00002884FF6F7731A40028002880A430280A6
:100CE000704702884FF6FF431A40028002880A4389
:100CF0000280704721B1028842F00102028004E0C4
:100D000002884FF6FE731A400280704770B50024C7
:100D100000220023058C4FF6FE7635400584028CB8
:100D20008388048B4FF68F752C40B51E2C400D88A0
:100D30002C43751E2A408D892A434D882A43524DE3
:100D4000A84202D0564DA84213D14FF6F7752A405B
:100D5000CD892A434FF6FB752A408D882A434FF6EA
:100D6000FF652B404FF6FF552B400D8A2B434D8AD4
:100D70002B43838004838D684563028470BD70B506
:100D8000002400220023058C4FF6EF7635400584C1
:100D9000028C8388048B48F6FF752C404FF6FF4584
:100DA0002C400D884FF6FF7606EA05252C434FF6BA
:100DB000DF752A408D8906EA05152A434D8806EA23
:100DC00005152A43304DA84202D0354DA8421DD109
:100DD0004FF67F752A40CD894FF6FF7606EA051556
:100DE0002A434FF6BF752A408D8806EA05152A4327
:100DF0004FF6FF352B404FF2FF752B400D8A06EA68
:100E000085052B434D8A06EA85052B4383800483A1
:100E10008D688563028470BD70B5002400220023B4
:100E2000058C4FF6FF6635400584028C8388848BE1
:100E30004FF68F752C404FF6FC752C400D882C43D7
:100E40004FF6FF552A408D894FF6FF7606EA0525B5
:100E50002A434D8806EA05252A430B4DA84202D0B5
:100E60000F4DA84238D14FF2FF752A40CD894FF679
:100E7000FF7606EA05252A434FF6FF352A408D887E
:100E800006EA05252A4319E000000140000400405D
:100E900000080040000C004000100040001400401A
:100EA000000401400040014000440140004801406E
:100EB00000180040001C0040002000404EF6FF7566
:100EC0002B404DF6FF752B400D8A06EA05152B4386
:100ED0004D8A06EA05152B43838084838D68C5639C
:100EE000028470BD70B5002200230024058C4EF6EC
:100EF000FF7635400584038C8488828B48F6FF7525
:100F00002A404FF6FF452A400D884FF6FF7606EA45
:100F100005252A434DF6FF752B408D8906EA0535D8
:100F20002B434D8806EA05352B43FE4DA84202D0DF
:100F3000FD4DA84208D14BF6FF752C400D8A4FF6A7
:100F4000FF7606EA85152C43848082838D680564CC
:100F5000038470BD00210180418081808160818196
:100F6000C18101824182704770B503460020002490
:100F70001846183001258D40ACB21D8CA5431D8448
:100F800009B108290AD100EB610005684FF68F7698
:100F9000354005600568154305600FE00D1FC5F37A
:100FA0004E052844056848F6FF763540056005681B
:100FB0004FF6FF7606EA02263543056070BD4163B1
:100FC000704781637047C1637047016470470A4688
:100FD0000021018B4FF68F73194011430183704735
:100FE0000A460021018B48F6FF7319404FF6FF7344
:100FF00003EA02231943018370470A460021818BCB
:101000004FF68F7319401143818370470A460021C0
:10101000818B48F6FF7319404FF6FF7303EA0223F2
:101020001943818370470A460021018B4FF6F773FD
:1010300019401143018370470A460021018B4FF28A
:10104000FF7319404FF6FF7303EA0223194301832C
:1010500070470A460021818B4FF6F7731940114300
:10106000818370470A460021818B4FF2FF7319403C
:101070004FF6FF7303EA02231943818370470A4640
:101080000021018B4FF6FB73194011430183704718
:101090000A460021018B4FF6FF3319404FF6FF73CC
:1010A00003EA02231943018370470A460021818B1A
:1010B0004FF6FB7319401143818370470A460021A4
:1010C000818B4FF6FF3319404FF6FF7303EA02237B
:1010D0001943818370470A460021018B4FF67F73C5
:1010E00019401143018370470A460021018BC1F367
:1010F0000E014FF6FF7303EA022319430183704781
:101100000A460021818B4FF67F731940114381837A
:1011100070470A460021818BC1F30E014FF6FF7321
:1011200003EA02231943818370470A460021018C98
:101130004FF6FD7319401143018470470A460021A0
:10114000018C4FF6F77319401143018470470A462A
:101150000021018C4FF6DF7319404FF6FF7303EA4D
:1011600002131943018470470A460021018C4FF68F
:101170007F7319404FF6FF7303EA0213194301848A
:1011800070470A460021018C4FF6FF5319404FF675
:10119000FF7303EA02231943018470470A460021C2
:1011A000018C4FF2FF7319404FF6FF7303EA0223DD
:1011B0001943018470470A460021018C4DF6FF73E4
:1011C00019404FF6FF7303EA023319430184704755
:1011D00030B5002301248C40A3B2048C9C430484CA
:1011E000048C02FA01F5ADB22C43048430BD30B555
:1011F000002304248C40A3B2048C9C430484048CFC
:1012000002FA01F5ADB22C43048430BD828B4FF25B
:10121000FF331A408283828B4FF6FF7303EA012368
:101220001A4382837047F0B50C4615460021002210
:101230000026078C4EF6FF7C07EA0C070784818B9B
:10124000028C4FF6FF7707EA043640F6FF47394035
:101250004FF6FF7707EA052739434FF6FF7707EA8E
:101260000337394345F6FF773A4046F480573A430F
:1012700081830284F0BD828B4FF6F3731A40828320
:10128000828B0A4382837047F0B50C4615460021D5
:1012900000220026078C4FF6FF6C07EA0C07078434
:1012A000818B028C4FF6FF7707EA04264FF60C7706
:1012B00039404FF6FF7707EA03172F4339434FF2C0
:1012C000FF573A4046F480773A4381830284F0BD69
:1012D000028B4FF2FF331A400283028B4FF6FF73EB
:1012E00003EA01231A4302837047F0B50C46154602
:1012F000002100220026078C4FF6EF7C07EA0C073E
:101300000784018B028C4FF6FF7707EA041640F63C
:10131000FF4739404FF6FF7707EA033739434FF667
:10132000FF7703E0000001400004014007EA0527C1
:1013300039434FF65F773A4046F010073A4301834E
:101340000284F0BD028B4FF6F3731A400283028BC6
:101350000A4302837047F0B50C461546002100226F
:10136000068C4FF6FE773E400684018B028C4FF6CA
:101370000C7631407E1C06EA03162E4331434FF6AD
:10138000F576324044F00106324301830284F0BD19
:1013900070B505460C46208850B92389A28861881B
:1013A0002846FFF7D8FFE1882846FFF7CBFF25E066
:1013B000208804280AD12389A28861882846FFF75B
:1013C00094FFE1882846FFF783FF17E0208808286C
:1013D0000AD12389A28861882846FFF755FFE18852
:1013E0002846FFF748FF09E02389A288618828463C
:1013F000FFF719FFE1882846FFF708FF70BD0021BD
:1014000001804180012181800021C18001817047DC
:101410002DE9F04105460C4600260127608808B9F1
:10142000022600E00026A088012801D1022700E062
:1014300001272088A0B92389A28861882846FFF760
:101440008AFFE1882846FFF77DFF23893A46314627
:101450002846FFF74AFFE1882846FFF739FF13E0E7
:101460002389A28861882846FFF73FFFE188284644
:10147000FFF72EFF23893A4631462846FFF76BFFD8
:10148000E1882846FFF75EFFBDE8F0810146486B22
:1014900070470146886B70470146C86B704701462C
:1014A000086C70470A884B881A438B881A43CB888C
:1014B0001A430B891A434B891A438B891A43A0F8A4
:1014C000442070470021018041808180C1800181DA
:1014D00041818181704731B1B0F8442042F400422B
:1014E000A0F8442005E0B0F84420C2F30E02A0F8B2
:1014F0004420704721B1828842F00402828004E0D7
:1015000082884FF6FB731A408280704721B182882F
:1015100042F00102828004E082884FF6FE731A4096
:10152000828070471AB183890B43838102E08389EB
:101530008B43838170478182704702460020138A63
:101540000B4201D0012000E000207047CA43028214
:10155000704730B50246002000230024158A05EAB2
:101560000103958905EA010413B10CB1012000E0E3
:10157000002030BDCA430282704741EA0203A0F84E
:10158000483070471AB183890B43838102E0838915
:101590008B438381704721B1828842F008028280A8
:1015A00004E082884FF6F7731A4082807047018901
:1015B0004FF6F8721140018170470A4600210189F7
:1015C0004FF68F73194011430181704730B50446BF
:1015D0000D4629462046FFF7F0FF208940F007001E
:1015E000208130BD2DE9F04104460D4616461F46C8
:1015F000602D06D13B46012231462046FFF775FE9D
:1016000005E03B46012231462046FFF7A4FE29466D
:101610002046FFF7D2FF208940F007002081BDE877
:10162000F08130B50C4600210189C9B24FF6FF7533
:1016300005EA0325154325432943018130BD2DE9E2
:10164000F04105460E4617469846002443463A4662
:1016500031462846FFF7E5FF2C894FF6F870044025
:1016600044F007044FF68F70044044F070042C815E
:10167000BDE8F081F0B504460D4616461F463B46D0
:10168000324629462046FFF7CCFF208940F48040AF
:101690002081F0BD82884FF68F731A408280828845
:1016A0000A438280704702894FF6F8731A4002811C
:1016B00002890A430281704702894FF67F731A40FC
:1016C000028102890A4302817047F0B50C46154633
:1016D0001E460021002200230189028B038C4FF655
:1016E000F877394021434FF6FC473A4040F2011762
:1016F0003A434FF6DD773B404FF6FF7707EA061790
:101700002F433B43018102830384F0BD21B18288D2
:1017100042F08002828004E082884FF67F731A4094
:1017200082807047A0F850107047000010B5044642
:10173000F748844208D101211020FEF7E5FF00217F
:101740001020FEF7E1FF3EE0F248844209D101217A
:101750004804FEF7C8FF00214FF40030FEF7C3FF36
:1017600031E0ED48844209D101218804FEF7BBFF36
:1017700000214FF48020FEF7B6FF24E0E7488442C2
:1017800009D10121C804FEF7AEFF00214FF400206B
:10179000FEF7A9FF17E0E248844209D101210805BC
:1017A000FEF7A1FF00214FF48010FEF79CFF0AE036
:1017B000DC48844207D101212020FEF7A5FF00214B
:1017C0002020FEF7A1FF10BD2DE9FF4705460E467C
:1017D0000024A14600BFA046B08900B100BF2C8AFA
:1017E00024F44054F08804432C82AC8941F20C600C
:1017F0008443B08831890843718908430443AC812C
:10180000AC8A24F44074B0890443AC826846FEF785
:101810003AFEBF48854202D0C248854202D1DDF877
:101820000C9001E0DDF80890A88910F4004F08D072
:1018300009EBC90000EB091031684900B0FBF1F772
:1018400007E009EBC90000EB091031688900B0FB23
:10185000F1F76420B7FBF0F004012009642101FBDB
:101860001078A88910F4004F08D0322000EBC8008F
:10187000B0FBF1F000F00700044308E0322000EB79
:1018800008106421B0FBF1F000F00F0004432C813C
:10189000BDE8FF874FF41651016000218180C180AF
:1018A00001810C21418100218181704710B50246E0
:1018B0000020108A20F470600B884C8823438C88A9
:1018C0002343CC8823431843108210BD002101809C
:1018D00041808180C180704721B1828942F40052E9
:1018E000828104E082894DF6FF731A40828170473D
:1018F000028B02F47F420283028B0A430283704709
:1019000021B1828942F40042828103E08289C2F3DC
:101910000E028281704721B1828A42F40062828283
:1019200004E0828A4FF2FF731A4082827047C1F34B
:1019300008028280704701468888C0F3080070471B
:10194000028A4FF6F0731A400282028A0A43028228
:10195000704721B1828942F00202828104E08289CB
:101960004FF6FD731A408281704782894FF2FF73F0
:101970001A40828182890A4382817047028A4FF627
:10198000DF731A400282028A0A430282704721B141
:10199000028A42F48042028204E0028A4BF6FF731C
:1019A0001A4002827047818941F0010181817047AC
:1019B00021B1828A42F00802828204E0828A4FF6D4
:1019C000F7731A4082827047028BD2B20283028B75
:1019D00042EA01220283704721B1828A42F020024A
:1019E000828204E0828A4FF6DF731A408282704757
:1019F00021B1828A42F01002828204E0828A4FF68C
:101A0000EF731A4082827047828A4FF6FB731A4046
:101A10008282828A0A438282704721B1828A42F09E
:101A20000202828204E0828A4FF6FD731A408282AB
:101A300070471AB1838A0B43838202E0838A8B4307
:101A400083827047F0B5034600240026002500205D
:101A5000A1F510676A3F00D100BF1846C1F34214D8
:101A600001F01F06012707FA06F5012C01D10C3001
:101A700004E0022C01D1103000E014301AB10768E4
:101A80002F43076002E00768AF430760F0BD0246DE
:101A90000020B1F5007F00D100BF13880B4201D0B8
:101AA000012000E00020704701F40072B2F5007FD1
:101AB00000D100BFCA430280704770B502460024BF
:101AC000002300250020A1F510666A3E00D100BF6A
:101AD000C1F3421501F01F03012606FA03F3012D9D
:101AE00002D19689334006E0022D02D1168A334096
:101AF00001E0968A33400C12012606FA04F4168897
:101B0000344013B10CB1012000E0002070BD000092
:101B1000001001400044004000480040004C0040DC
:101B2000005000400014014010B500220023A1F530
:101B300010646A3C00D100BF0A1201249440A3B291
:101B4000DC43048010BD00000246FE4B13441868BD
:101B5000704710B5FC48006801280FD1FB49FC48CC
:101B6000006800F02DFEFA490860FA49F84800685C
:101B700001F02EF802D80020F549086010BD10B51C
:101B8000044600F0D3FCF44909682144884205D397
:101B900000F0CCFCF0490860FFF7DBFF10BD10B58A
:101BA000EE480068EE49086000F00FFDEB49086060
:101BB00008460068EA490968401AEA490860084688
:101BC0000068E949884206DCE6480068090C0844D8
:101BD000E44908600CE0E348006847F6FF7188427A
:101BE00006DBE0480068A0F57F40FF38DD4908606B
:101BF000DC4800684FF4167148434FF4487190FB7D
:101C0000F1F4204600F080FFD8490860F021D74861
:101C1000006800F062FCD649D648006800F028FE53
:101C20000446F12100F059FCF221C948006800F097
:101C300054FC10BD10B5044600F078FCCE4909688C
:101C40002144884205D300F071FCCB490860FFF7BE
:101C5000A6FF10BD10B54FF48071C848FEF7D2FE44
:101C6000BB480068C64908600020B9490860C549FA
:101C7000086048608860BF490860B349086010BDCB
:101C800010B5002000F071FDFFF7E4FF4FF4007184
:101C9000BA48FEF7B5FE10BD10B500F09FFC01215B
:101CA0000420FEF785FC4FF44070B749086001201E
:101CB0000871002088710220C87103204871AF4864
:101CC000FEF722FE10BD4DF6C02000F019FB00F01B
:101CD000D7FCFFF7E1FFFFF7D3FFFFF7BBFF4FF69E
:101CE000FF7000F039FCA94800684FF47A72B0FB2D
:101CF000F2F1481EB0F1807F01D301201BE0481EA5
:101D00004FF0E022506150170F22002807DA130726
:101D10001D0E9F4B00F00F04241F1D5503E01307F9
:101D20001C0E9C4B1C5400BF00204FF0E022906121
:101D300007201061002008B100BFFEE706E0642024
:101D4000FFF778FF40F6B830FFF719FFF7E7704765
:101D500010B5044600F0EAFB8F4909682144884227
:101D600005D300F0E3FB8C490860FFF7F0FF10BDDE
:101D700010B583480068764908604FF480717F4849
:101D8000FEF73EFE01207049086010BD70B50024CA
:101D90004CE06C48005DFF2847D16A49A01D085CF3
:101DA000FE2842D1601C085CEB2819D006DCE02834
:101DB00009D0E1280AD0EA282BD10AE0EC2816D075
:101DC000ED2826D11AE0FFF745FF22E0FFF7D0FF0C
:101DD0001FE00421A01CFFF7B7FE7049086018E05F
:101DE0000421A01CFFF7B0FE6D49086011E004213A
:101DF000A01CFFF7A9FE6B4908600AE00421A01CA3
:101E0000FFF7A2FE52490860084600685C49086076
:101E100000BF00BF002503E000204A4948556D1C63
:101E2000152DF9DD002060490870641C5E480078BB
:101E3000801FA042ADDA70BD10B540F225515B485D
:101E4000FFF73BFEA0B15948FFF775FDC4B23D480E
:101E500055490978445454480078401C5249087048
:101E600008460078152801D100200870FFF78EFF82
:101E700010BD10B5FFF7EEFE4FF400713F48FEF7BE
:101E8000CAFD10BD10B50446204600F06EFC10BD22
:101E90002DE9F14F424801684048006800F090FC8D
:101EA000044640480168204600F08AFC404908602A
:101EB0003C4801684FF0804000F0DAFC05463748A6
:101EC000006880F000442946204600F0CBFC3949E8
:101ED0000860344800683849086038480068384964
:101EE000086000F072FB3549086008460068344914
:101EF0000968401A33490860084600681A49884250
:101F000006DC30480068090C08442E4908600CE0E3
:101F10002C48006847F6FF71884206DB29480068B4
:101F2000A0F57F40FF3827490860264800684EF634
:101F3000602148434FF4487190FBF1F4204600F0D3
:101F4000E3FD41E0C000002068000020000048439D
:101F50007000002000803B45500000202000002041
:101F600024000020280000200180FFFF2C0000201A
:101F700000007A443C000020480000200008024095
:101F800074000020D80000205400002078000020B9
:101F900018ED00E000E400E04C00002014000020F8
:101FA000180000201C000020100000200048004005
:101FB0005C0000206000002064000020340000204D
:101FC0003000002038000020414908604148406846
:101FD000404988600846006848603D48006800F055
:101FE000BDFD21F000470646009800F096FD8046B2
:101FF00032463B4600F013FD04460022364B00F00B
:1020000014FD824600F0BDFD324908600846816833
:102010003248006800F02CFC06462E4841683048E3
:10202000006800F025FC07462A4801682D48006832
:1020300000F01EFC80462C480168404600F0C0FBC2
:102040000546394600F0BCFB0446314600F0B8FBBB
:10205000254908604FF07E512348006800F0B8FD24
:1020600003D84FF07E502049086000211E480068C8
:1020700000F0A4FD02D800201B4908601B491A4843
:10208000006800F0F5FB054600F054FD0446FFF73C
:10209000F9FEBDE8F88F10B501211548FFF76AFA7F
:1020A00014480068401C1349086008460068052869
:1020B0000DDB11480068012806D11048006800F0C7
:1020C00039FD0446FFF7E4FE00200A49086010BD10
:1020D00040000020D800002000BAA6406400002084
:1020E000600000205C0000203C0000200000C8428E
:1020F000000800404400002068000020700000201C
:102100000CB50020019000907248006840F48030C7
:102110007049086000BF6F48006800F4003000900C
:102120000198401C0190009818B90198B0F5A06F73
:10213000F1D16848006810F4003F02D001200090FF
:1021400001E0002000900098012845D1614840300E
:10215000006840F080505F49403108605E48006888
:1021600040F480405C4908605A480830006859498A
:10217000083108600846006840F4004008600846DE
:10218000006840F4A05008605448091F0860081F08
:10219000006840F08070091F086000BF4D4800686B
:1021A00010F0007FFAD040F205604D4908604948C0
:1021B0000830006820F003004649083108600846EE
:1021C000006840F00200086000BF42480830006824
:1021D00000F00C000828F8D10CBD10B53D4800688F
:1021E00040F001003B49086000203A49083108608E
:1021F000384800683B490840364908603A48091D9C
:102200000860081F006820F48020091F0860002073
:1022100030490C310860FFF773FF4FF0006033491D
:10222000086010BD70B500200022022300240221A6
:10223000284D08352D6805F00C0020B1042806D083
:10224000082834D107E02A4D2A4E356033E02A4D64
:10225000284E35602FE01F4D2D1D2D68C5F380548D
:102260001C4D2D1D2D6805F03F0154B1224DB5FBCD
:10227000F1F5184E361D3668C6F3881605FB06F2D2
:1022800009E01B4DB5FBF1F5124E361D3668C6F35D
:10229000881605FB06F20F4D2D1D2D68C5F301456F
:1022A0006D1C6B00B2FBF3F5124E356003E0104D70
:1022B000104E356000BF00BF064D08352D68C5F3D0
:1022C00003150E4E705D0B4D2D68C540094E3560EF
:1022D00070BD000000380240007000400854400704
:1022E000003C0240FFFFF6FE1030002408ED00E045
:1022F0000024F4007800002000127A007C00002006
:1023000010B588B0044601218804FEF784F9012144
:102310000220FEF74DF94FF44060069002208DF840
:102320001C0000208DF81E008DF81F0003208DF882
:102330001D0006A97748FEF7E7FA07220A2175482B
:10234000FEF76DFB07220B217248FEF768FB029433
:102350000020ADF80C00ADF80E00ADF81000ADF89F
:1023600014000C20ADF8120002A96B48FFF72CFAFC
:102370004FF4A060FDF724FF27208DF80400002013
:102380008DF805008DF8060001208DF8070001A8E2
:10239000FDF71BFF012240F225515F48FFF752FB7A
:1023A00001215D48FFF798FA08B010BD70B50546E9
:1023B0000E4600240BE0295D5748FFF7B8FA00BF2E
:1023C00080215548FFF763FB0028F9D0641CB44214
:1023D000F1DB70BD10B504460A2C38D2DFE804F0FA
:1023E000050A0F14191E23282D3230214A48FFF701
:1023F0009EFA2CE031214848FFF799FA27E0322174
:102400004548FFF794FA22E033214348FFF78FFA5B
:102410001DE034214048FFF78AFA18E035213E4894
:10242000FFF785FA13E036213B48FFF780FA0EE00C
:1024300037213948FFF77BFA09E038213648FFF7A2
:1024400076FA04E039213448FFF771FA00BF00BF83
:1024500000BF80213048FFF71AFB0028F9D010BDDB
:102460002DE9F04105462C460027002603E00A200E
:1024700094FBF0F4761C002CF9D106B90126012456
:10248000002703E004EB840044007F1C701EB84268
:10249000F8DC0BE095FBF4F84046FFF79BFF95FB5B
:1024A000F4F004FB10550A2094FBF0F4002CF1D159
:1024B000BDE8F08110B504460BE021781648FFF71F
:1024C00036FA00BF80211448FFF7E1FA0028F9D05E
:1024D000641C20780028F0D110BD73B50D466C4601
:1024E0000E48457020780D4988706078C870A078D3
:1024F0000871E078487107210848FFF757FF7CBD55
:102500000748006870470748006870470648006839
:10251000704700000004024000480040980000207E
:102520008C000020900000209400002009480068E2
:10253000704708480068401C064908607047054A13
:10254000128891B200BF0A18024B1B689A42FAD156
:1025500070470000A00000201CB5044601210220A5
:10256000FEF759F801210846FEF722F8C020009036
:1025700002208DF8040003208DF8050000208DF85E
:10258000060001208DF8070069461248FEF7BCF9E5
:10259000022206210F48FEF742FA022207210D48C7
:1025A000FEF73DFA00231A4603210B48FFF78DF88A
:1025B00021460948FEF760FB01210748FEF79AFB18
:1025C00000210548FEF756FB1CBD10B50248FEF77A
:1025D00055FB10BD000002400004004010B5012171
:1025E0000420FEF718F801210820FDF7E1FF4FF461
:1025F000805064490860022008710320487100205F
:102600008871C8716048FEF77FF902220C215E488C
:10261000FEF705FA5D480088401E5D4948600020CD
:102620000880088148805B48FEF7DBFA60205A4941
:1026300008800120488059480088401E886000209A
:1026400088815448FEF762FB08215248FEF7EBFCF4
:1026500001215048FEF730FB012211464D48FEF79C
:1026600061FF1E204E490870012048708870C870B4
:102670000846FDF7AAFD01214648FEF73BFB10BDC9
:1026800010B501210820FDF7C6FF01210846FDF71E
:102690008FFF02203B490860087103204871002029
:1026A00088710120C8713F48FEF72EF902220121EE
:1026B0003C48FEF7B4F904203B49088000204880DC
:1026C000012088800020C88008813848FEF7A0FEDD
:1026D00060213648FEF771FF04213448FEF7E3FF1E
:1026E00080213248FEF7E8FF01213048FEF702FB67
:1026F000012204212D48FEF715FF322028490870D9
:102700000020487001208870C8700846FDF75DFD04
:1027100010BD10B504212548FEF72CFF2348FEF715
:10272000B8FE234908800846008890B11F48FEF78C
:10273000ADFE642148431E490988B0FBF1F01D49F4
:1027400008801B4800881C4991FBF0F01B49088059
:1027500004E00020174908801849088010BD174878
:102760000088704713480088704770B504460748D2
:10277000008860436421B0FBF1F529460548FEF767
:102780001EFC70BDAC000020000C0240A600002022
:10279000E400002000080040F0000020A800002015
:1027A000B40000200000024004010020000C0040A2
:1027B000B8000020BA00002000BD0105BC000020C8
:1027C000F0B480EA0102D40F4200B2EB410F02D212
:1027D0000246084611464A0042D0C30DDDB2C1F39D
:1027E000C752AD1A202D35DAC1F3160141F40002AB
:1027F00004B15242C5F1200602FA06F12A41104402
:10280000B3EBD05F23D0C4B1012DA0EBC35009DCE2
:10281000F0BC4FF0004202EAC35200F50000DBB208
:1028200000F00ABA400000F1807000EBC350A0F144
:10283000807040EAD170490009E0490841EAC0715E
:10284000A0EBC35000F50000400800EBC350F0BC03
:1028500000F0E9B96142012202EB4101001BF6E7F9
:10286000F0BC704781F00041AAE780F00040A7E784
:1028700080EA010210B502F00043400026D04A0071
:1028800023D04FEA106101EB1261C0F35600C2F38E
:10289000560240F4000042F40002A0FB0220A1F125
:1028A0007F014FEA0040140401D000F1010050EA1A
:1028B000124001D44000491EC2B20C0604EBD010F5
:1028C000401C4008802A02D003E0002010BD20F008
:1028D0000100002900DA0020184310BD2DE9FE4F49
:1028E000804681EA0300C00F0C46009021F00041B1
:1028F00023F00045B8EB0200A94105D2404621462D
:1029000090461C460B46024623F00040104304D17B
:102910004046214603B0BDE8F08F270DC7F30A00FB
:10292000C3F30A510290401A0190402866DAC3F3BB
:10293000130040F4801B0098924620B10023D2EB94
:10294000030A63EB0B0B01985946C0F14002504655
:1029500000F048F906460D4650465946019A00F0E7
:1029600050F910EB08006141002487EA115284EA13
:10297000E7731A433BD0009A3AB3019A012A4FEA0F
:10298000075210DC001B61EB02014FF0004202EA2B
:102990000752CDE90042001C41F5801132462B461A
:1029A00000F084F9B6E7001B61EB0201001C41F561
:1029B000801300185B412018A2F5001747EB0301B4
:1029C00040EAD570B6196D4111E06D084FEA360640
:1029D00045EAC0754FEA0752001B61EB0201001C7B
:1029E00041F5801149084FEA300000195141324643
:1029F0002B4603B0BDE8F04F00F04BB90098012220
:102A000040000023D0EB020263EBE0730098214604
:102A10004FEAE074B8EB000061EB0401E9E783F0F2
:102A200000435BE781F0004158E72DE9F04D81EA72
:102A3000030404F0004B21F0004514464FF0000A57
:102A400023F0004150EA050220D054EA01021DD0D3
:102A5000C5F30A570246C5F31303C1F31300C1F3CC
:102A60000A5640F4801543F48013A7EB0608101BA8
:102A7000D64608F2FD3873EB050002D308F10108D1
:102A800001E092185B41B8F1000F03DA0020014623
:102A9000BDE8F08D00204FF48011064684460EE01C
:102AA000171B73EB050705D3121B63EB05030643E6
:102AB0004CEA010C49084FEA300092185B4150EA99
:102AC0000107EDD152EA030012D082EA040083EA42
:102AD0000501084303D100224FF0004308E0101B1A
:102AE000AB4102D20122002302E06FF00102531039
:102AF0001AEB06004CEB085110EB0A0041EB0B01FE
:102B0000BDE8F04D00F0C5B8C10F80EAE0700844A0
:102B1000CA079623002100F08FB80EB540F233416A
:102B200002910021CDE900110A460B4600F0BEF8E3
:102B300003B000BD20F00040C10DC0F3160040F40A
:102B400000007F2901DA00207047962903DCC1F1DB
:102B50009601C840704796398840704700F000429F
:102B600030F000400AD0C10D01F56071C0F31600CD
:102B700042EA0151C2084007114370470020014654
:102B8000704701F0004330B421F0004150EA0102E7
:102B900006D00A0DA2F56072C1F31301002A02DC0F
:102BA00030BC00207047440F44EAC104C100E01863
:102BB00030BC00EBC25000F036B80000002801DB4A
:102BC000C0F10040002901DBC1F1004181427047A2
:102BD000002801DBC0F10040002901DBC1F1004108
:102BE00088427047202A04DB203A00FA02F10020D4
:102BF00070479140C2F1200320FA03F3194390403B
:102C00007047202A06DBCB17203A41FA02F043EA4C
:102C1000E07306E041FA02F3D040C2F12002914095
:102C20000843194670470029A8BF7047401C490057
:102C300008BF20F00100704710B4B0FA80FC00FA21
:102C40000CF050EA010404BF10BC704749B1CCF14C
:102C5000200421FA04F411FA0CF118BF01212143D8
:102C60000843A3EB0C01CB1D0106000A002BBEBFDD
:102C7000002010BC704700EBC35010440029A4BFD3
:102C800010BC7047401C490008BF20F0010010BC78
:102C9000704710B5002B08DA401C41F10001921872
:102CA0005B411A4301D120F0010010BD2DE9F04D28
:102CB00092469B4611B1B1FA81F202E0B0FA80F27D
:102CC00020329046FFF78EFF04460F4640EA0A0086
:102CD00041EA0B0153465A46084303D12046394680
:102CE000BDE8F08D114653EA010015D0C8F140024D
:102CF000504600F03FF805460E46504659464246BB
:102D0000FFF770FF084301D0012000E000200543D9
:102D100046EAE0762C4337430A984FEA4453A0EB47
:102D200008004FEAD4240A304FF0000244EA475426
:102D30004FEAD72502D500200146D1E70105101939
:102D40006941DDE9084500196941BDE8F04DA0E79A
:102D5000064C074D06E0E06840F0010394E80700E8
:102D600098471034AC42F6D3FDF712FAB42D0008A0
:102D7000D42D0008202A04DB203A21FA02F0002199
:102D8000704721FA02F3D040C2F12002914008437B
:102D90001946704702E008C8121F08C1002AFAD17C
:102DA00070477047002001E001C1121F002AFBD1CB
:102DB00070470000D42D000800000020C000000073
:102DC000942D0008942E0008C0000020500400003C
:102DD000A42D000800000000010203040102030406
:102DE00006070809000000000000403F0000803E88
:102DF000CDCC4C3E000000000000000000000000B0
:102E000000000000000000000000000000000000C2
:102E100000000000000000000000000000000000B2
:102E200000000000000000000000000000000000A2
:102E30000000000000000000000000000000000092
:102E4000000000000000000000000000007A030AFB
:102E5000000000000000000001020304060708094A
:102E6000000000000000000000000000FFF0710FF3
:102E7000773EFE00000000008813A041D020000033
:102E80000000000000000000000000000000000042
:042E9000000000003E
:040000050800018965
:00000001FF
